:1000000000308A003A280000831A0A28A500030E4F
:10001000A6000F288312A500030EA600A6140A0846
:10002000AD008A018313A50E0408A7002008A800CC
:100030002108A9002208AA002308AB002408AC006C
:1000400083128B1E25280B194028270884002808B6
:10005000A0002908A1002A08A2002B08A3002C0850
:10006000A4002D088A00260E83008312250EA618F0
:1000700083160900FF238316900000308A00772939
:10008000BB08031D50280130BA063A18492805124A
:100090004A2805168316051210308312BB0051281A
:1000A000BB033A1C55282F0856283008BC003C08D2
:1000B000FF3CCD0081000B118A1125280030A100E2
:1000C0001F08F33921049F000630A000A00B66280A
:1000D00000009F149F186A281E08AE000430A1007B
:1000E0001F08F33921049F000630A000A00B7628DA
:1000F00000009F149F187A281E08AF000830A10046
:100100001F08F33921049F000630A000A00B8628A9
:1001100000009F149F188A281E08B0000034103079
:10012000CC00A001A301C90CC80C031C9D284A08DF
:10013000A0070318A30A4B08A307A30CA00CA20C4A
:10014000A10CCC0B9328B528C5014108C400A3011C
:100150004108C6002308C7004508C9004108C80077
:100160002308CB004108CA008F28220CC800210CAC
:10017000C700C80CC70CC80CC70CC80CC70CC80CEF
:10018000C70CC80CC70C0330C80541304707C9006D
:100190004808CA000318CA0AA30141084907C20057
:1001A0004A08C30023080318230FC3074208A1000D
:1001B0004308A2000034A101A201A001A301460846
:1001C000031DE52845080319FF281030C700031058
:1001D000C30DC40DA00DA30D46082302031DF22874
:1001E00045082002031CFB284508A002031CA303AA
:1001F0004608A3020314A10DA20DC70BE7284B2943
:1002000030082F02031D0B29B101FF30B200B701E6
:100210003508B6001F2930082F02031817292F08A8
:10022000B1003008B200B7013508B6001F29300808
:10023000B1002F08B2003508FF3CB600B701C2017B
:100240002E0DC300420DC400C30DC40DC30DC40D5B
:10025000C30DC40DC30DC40DC30DC40DC030C30503
:1002600075304307BF004408C0000530031806304E
:10027000C0073508C100A4202208A3002108C1003E
:100280002208C2004008C4003F08C3002208C6007C
:100290002108C500DB282208B4002108B30000347F
:1002A0001230C002031C6329403084008313FC30E9
:1002B00080050310800C800C000803196329612954
:1002C0000000800B602900343908BF00BF0ABF035B
:1002D00003196E29FF30C000502167293808C0007B
:1002E0005021831685122030831285060034840144
:1002F00083131F3083051F1383161F109F101F11B8
:100300009F110730831299008316950181170F30D2
:10031000850083121F1383161F149F141F159F112E
:100320001F169F121F1383129F131F145E2000219C
:100330000730A000A01DA52907308101813084006D
:1003400083130008C0390F388000640081308400B6
:100350000008C039200480003A142F08BC003C0873
:10036000FF3CBF0081001030BB008B16C0308B04F7
:10037000FF30B500831685158312851DC9295E20BF
:100380002E08C100A4202208B9002108B800642169
:10039000F2295E2000213108B50032083502031829
:1003A000F2293608C100A4202208B9002108B800AB
:1003B000BE01BD013E083402031CF029031DE429DF
:1003C00033083D020318F0295E20002164218316C2
:1003D000851583128519F229BD0A0319BE0ADA2987
:0803E000B50ACD29BA2963001A
:02400E008431FB
:00000001FF
;PIC12F675
